:020000040800F2
:10000000005000202D190008C5160008CB16000866
:10001000D1160008D7160008DD1600080000000001
:10002000000000000000000000000000E3160008CF
:10003000EF16000800000000FB1600080717000874
:100040007D1900087D1900087D1900087D19000838
:100050007D1900087D1900087D1900087D19000828
:100060007D1900087D1900087D1900087D19000818
:100070007D1900087D1900087D1900081517000872
:100080007D1900087D1900087D1900087D190008F8
:100090007D1900087D1900087D1900087D190008E8
:1000A000291700083D1700085117000865170008B8
:1000B0007D190008791700087D1900087D190008CE
:1000C0007D1900087D1900087D1900087D190008B8
:1000D0007D1900088D1700087D1900087D1900089A
:1000E0007D1900087D190008000000007D19000836
:1000F0007D1900087D1900087D1900087D19000888
:100100007D1900087D1900087D1900087D19000877
:100110007D1900087D1900087D1900087D19000867
:100120007D1900087D1900087D1900087D19000857
:1001300010B5054C237833B9044B13B10448AFF321
:1001400000800123237010BD000200200000000089
:10015000E8AA000808B5034B1BB103490348AFF3F5
:10016000008008BD0000000004020020E8AA00088A
:10017000034613F8012B002AFBD1181A01387047E7
:1001800081F0004102E000BF83F0004330B54FEA48
:1001900041044FEA430594EA050F08BF90EA020FB5
:1001A0001FBF54EA000C55EA020C7FEA645C7FEA48
:1001B000655C00F0E2804FEA5454D4EB5555B8BF6B
:1001C0006D420CDD2C4480EA020281EA030382EADC
:1001D000000083EA010180EA020281EA0303362D6E
:1001E00088BF30BD11F0004F4FEA01314FF4801C41
:1001F0004CEA113102D0404261EB410113F0004F53
:100200004FEA03334CEA133302D0524263EB430309
:1002100094EA050F00F0A780A4F10104D5F1200EA7
:100220000DDB02FA0EFC22FA05F2801841F1000102
:1002300003FA0EF2801843FA05F359410EE0A5F1D6
:1002400020050EF1200E012A03FA0EFC28BF4CF007
:10025000020C43FA05F3C01851EBE37101F00045BD
:1002600007D54FF0000EDCF1000C7EEB00006EEBCA
:100270000101B1F5801F1BD3B1F5001F0CD3490854
:100280005FEA30004FEA3C0C04F101044FEA4452AB
:1002900012F5800F80F09A80BCF1004F08BF5FEA32
:1002A000500C50F1000041EB045141EA050130BD12
:1002B0005FEA4C0C404141EB0101013C28BFB1F524
:1002C000801FE9D291F0000F04BF01460020B1FA6F
:1002D00081F308BF2033A3F10B03B3F120020CDA42
:1002E0000C3208DD02F1140CC2F10C0201FA0CF020
:1002F00021FA02F10CE002F11402D8BFC2F1200C85
:1003000001FA02F120FA0CFCDCBF41EA0C0190403A
:10031000E41AA2BF01EB0451294330BD6FEA040483
:100320001F3C1CDA0C340EDC04F11404C4F120026E
:1003300020FA04F001FA02F340EA030021FA04F380
:1003400045EA030130BDC4F10C04C4F1200220FAD7
:1003500002F001FA04F340EA0300294630BD21FA15
:1003600004F0294630BD94F0000F83F4801306BFDB
:1003700081F480110134013D4EE77FEA645C18BFCF
:100380007FEA655C29D094EA050F08BF90EA020F66
:1003900005D054EA000C04BF1946104630BD91EA5E
:1003A000030F1EBF0021002030BD5FEA545C05D161
:1003B0004000494128BF41F0004130BD14F58004A0
:1003C0003CBF01F5801130BD01F0004545F0FE4114
:1003D00041F470014FF0000030BD7FEA645C1ABF49
:1003E000194610467FEA655C1CBF0B46024650EA80
:1003F000013406BF52EA033591EA030F41F40021AC
:1004000030BD00BF90F0000F04BF0021704730B531
:100410004FF4806404F132044FF000054FF0000106
:1004200050E700BF90F0000F04BF0021704730B5C7
:100430004FF4806404F1320410F0004548BF40429C
:100440004FF000013EE700BF42004FEAE2014FEAF1
:1004500031014FEA02701FBF12F07F4393F07F4FCC
:1004600081F06051704732F07F4208BF704793F0CF
:100470007F4F04BF41F40021704730B54FF46074E2
:1004800001F0004521F000411CE700BF50EA0102E5
:1004900008BF704730B54FF000050AE050EA01028E
:1004A00008BF704730B511F0004502D5404261EBFE
:1004B00041014FF4806404F132045FEA915C3FF43F
:1004C000D8AE4FF003025FEADC0C18BF03325FEADC
:1004D000DC0C18BF033202EBDC02C2F1200300FA8D
:1004E00003FC20FA02F001FA03FE40EA0E0021FAB2
:1004F00002F11444BDE600BF70B54FF0FF0C4CF4A0
:10050000E06C1CEA11541DBF1CEA135594EA0C0F51
:1005100095EA0C0F00F0DEF82C4481EA030621EA8C
:100520004C5123EA4C5350EA013518BF52EA0335C7
:1005300041F4801143F4801338D0A0FB02CE4FF079
:100540000005E1FB02E506F00042E0FB03E54FF0A9
:100550000006E1FB03569CF0000F18BF4EF0010EA1
:10056000A4F1FF04B6F5007F64F5407404D25FEA9D
:100570004E0E6D4146EB060642EAC62141EA555150
:100580004FEAC52040EA5E504FEACE2EB4F1FD0C92
:1005900088BFBCF5E06F1ED8BEF1004F08BF5FEA10
:1005A000500E50F1000041EB045170BD06F00046C2
:1005B00046EA010140EA020081EA0301B4EB5C046F
:1005C000C2BFD4EB0C0541EA045170BD41F4801167
:1005D0004FF0000E013C00F3AB8014F1360FDEBF8C
:1005E000002001F0004170BDC4F10004203C35DA68
:1005F0000C341BDC04F11404C4F1200500FA05F3EB
:1006000020FA04F001FA05F240EA020001F000428B
:1006100021F0004110EBD37021FA04F642EB060101
:100620005EEA430E08BF20EAD37070BDC4F10C042B
:10063000C4F1200500FA04F320FA05F001FA04F2EF
:1006400040EA020001F0004110EBD37041F10001DB
:100650005EEA430E08BF20EAD37070BDC4F12005E6
:1006600000FA05F24EEA020E20FA04F301FA05F24E
:1006700043EA020321FA04F001F0004121FA04F2F6
:1006800020EA020000EBD3705EEA430E08BF20EAC6
:10069000D37070BD94F0000F0FD101F00046400000
:1006A00041EB010111F4801F08BF013CF7D041EA82
:1006B000060195F0000F18BF704703F00046520086
:1006C00043EB030313F4801F08BF013DF7D043EA57
:1006D0000603704794EA0C0F0CEA135518BF95EA0D
:1006E0000C0F0CD050EA410618BF52EA4306D1D194
:1006F00081EA030101F000414FF0000070BD50EAB3
:10070000410606BF1046194652EA430619D094EA3C
:100710000C0F02D150EA013613D195EA0C0F05D126
:1007200052EA03361CBF104619460AD181EA03017A
:1007300001F0004141F0FE4141F470014FF0000032
:1007400070BD41F0FE4141F4780170BD70B54FF0CD
:10075000FF0C4CF4E06C1CEA11541DBF1CEA13554D
:1007600094EA0C0F95EA0C0F00F0A7F8A4EB05042F
:1007700081EA030E52EA03354FEA013100F0888026
:100780004FEA03334FF0805545EA131343EA1263EF
:100790004FEA022245EA111545EA10654FEA0026A4
:1007A0000EF000419D4208BF964244F1FD0404F55D
:1007B000407402D25B084FEA3202B61A65EB0305B9
:1007C0005B084FEA32024FF480104FF4002CB6EB76
:1007D000020E75EB030E22BFB61A754640EA0C00F6
:1007E0005B084FEA3202B6EB020E75EB030E22BF36
:1007F000B61A754640EA5C005B084FEA3202B6EB77
:10080000020E75EB030E22BFB61A754640EA9C0035
:100810005B084FEA3202B6EB020E75EB030E22BF05
:10082000B61A754640EADC0055EA060E18D04FEAC3
:10083000051545EA16754FEA06164FEAC30343EA63
:1008400052734FEAC2025FEA1C1CC0D111F4801F30
:100850000BD141EA00014FF000004FF0004CB6E729
:1008600011F4801F04BF01430020B4F1FD0C88BFC8
:10087000BCF5E06F3FF6AFAEB5EB030C04BFB6EBD3
:10088000020C5FEA500C50F1000041EB045170BDC6
:100890000EF0004E4EEA113114EB5C04C2BFD4EBF3
:1008A0000C0541EA045170BD41F480114FF0000E77
:1008B000013C90E645EA060E8DE60CEA135594EAF3
:1008C0000C0F08BF95EA0C0F3FF43BAF94EA0C0FF6
:1008D0000AD150EA01347FF434AF95EA0C0F7FF46B
:1008E00025AF104619462CE795EA0C0F06D152EABF
:1008F00003353FF4FDAE1046194622E750EA4106A3
:1009000018BF52EA43067FF4C5AE50EA41047FF4B3
:100910000DAF52EA43057FF4EBAE12E74FF0FF3C18
:1009200006E000BF4FF0010C02E000BF4FF0010CE9
:100930004DF804CD4FEA410C7FEA6C5C4FEA430C62
:1009400018BF7FEA6C5C1BD001B050EA410C0CBFB1
:1009500052EA430C91EA030F02BF90EA020F002013
:10096000704710F1000F91EA030F58BF994208BF7A
:1009700090422CBFD8176FEAE37040F00100704737
:100980004FEA410C7FEA6C5C02D150EA013C07D18E
:100990004FEA430C7FEA6C5CD6D152EA033CD3D0D9
:1009A0005DF8040B704700BF8446104662468C46D3
:1009B0001946634600E000BF01B5FFF7B7FF002806
:1009C00048BF10F1000F01BD4DF808EDFFF7F4FF2F
:1009D0000CBF012000205DF808FB00BF4DF808EDBA
:1009E000FFF7EAFF34BF012000205DF808FB00BFDD
:1009F0004DF808EDFFF7E0FF94BF012000205DF8FF
:100A000008FB00BF4DF808EDFFF7CEFF94BF0120B3
:100A100000205DF808FB00BF4DF808EDFFF7C4FFAC
:100A200034BF012000205DF808FB00BF4FEA410CF5
:100A30007FEA6C5C02D150EA013C0AD14FEA430CD8
:100A40007FEA6C5C02D152EA033C02D14FF0000015
:100A500070474FF0010070474FEA410212F5001253
:100A600015D211D56FF47873B3EB625212D94FEAF5
:100A7000C12343F0004343EA505311F0004F23FADF
:100A800002F018BF404270474FF00000704750EA34
:100A9000013005D111F0004008BF6FF000407047F1
:100AA0004FF00000704700BF4FEA4102B2F1E0434F
:100AB00024BFB3F5001CDCF1FE5C0DD901F0004C45
:100AC0004FEAC0024CEA5070B2F1004F40EB830095
:100AD00008BF20F00100704711F0804F21D113F1C1
:100AE0003872BCBF01F00040704741F480114FEAFA
:100AF0005252C2F11802C2F1200C10FA0CF320FA83
:100B000002F018BF40F001004FEAC1234FEAD3239F
:100B100003FA0CFC40EA0C0023FA02F34FEA430309
:100B2000CCE77FEA625307D150EA01331EBF4FF092
:100B3000FE4040F44000704701F0004040F0FE40AD
:100B400040F40000704700BF80F0004002E000BFAA
:100B500081F0004142001FBF5FEA410392EA030FA8
:100B60007FEA226C7FEA236C6AD04FEA1262D2EBF2
:100B70001363C1BFD218414048404140B8BF5B42F7
:100B8000192B88BF704710F0004F40F4000020F090
:100B90007F4018BF404211F0004F41F4000121F0A6
:100BA0007F4118BF494292EA030F3FD0A2F10102F0
:100BB00041FA03FC10EB0C00C3F1200301FA03F12E
:100BC00000F0004302D5494260EB4000B0F5000F51
:100BD00013D3B0F1807F06D340084FEA310102F110
:100BE0000102FE2A51D2B1F1004F40EBC25008BFC2
:100BF00020F0010040EA03007047490040EB00008C
:100C0000013A28BFB0F5000FEDD2B0FA80FCACF18C
:100C1000080CB2EB0C0200FA0CF0AABF00EBC250B9
:100C200052421843BCBFD0401843704792F0000FA7
:100C300081F4000106BF80F400000132013BB5E7FA
:100C40004FEA41037FEA226C18BF7FEA236C21D070
:100C500092EA030F04D092F0000F08BF08467047D5
:100C600090EA010F1CBF0020704712F07F4F04D1A3
:100C7000400028BF40F00040704712F100723CBFB6
:100C800000F50000704700F0004343F0FE4040F4E0
:100C9000000070477FEA226216BF08467FEA23639E
:100CA0000146420206BF5FEA412390EA010F40F489
:100CB000800070474FF0000304E000BF10F00043D5
:100CC00048BF40425FEA000C08BF704743F09643BC
:100CD00001464FF000001CE050EA010208BF7047D7
:100CE0004FF000030AE000BF50EA010208BF70475E
:100CF00011F0004302D5404261EB41015FEA010C73
:100D000002BF84460146002043F0B64308BFA3F16A
:100D10008053A3F50003BCFA8CF2083AA3EBC2534C
:100D200010DB01FA02FC634400FA02FCC2F120026B
:100D3000BCF1004F20FA02F243EB020008BF20F0A2
:100D40000100704702F1200201FA02FCC2F1200208
:100D500050EA4C0021FA02F243EB020008BF20EAFD
:100D6000DC7070474FF0FF0C1CEAD0521EBF1CEA2B
:100D7000D15392EA0C0F93EA0C0F6FD01A4480EA19
:100D8000010C400218BF5FEA41211ED04FF0006302
:100D900043EA501043EA5111A0FB01310CF000402E
:100DA000B1F5000F3EBF490041EAD3715B0040EA54
:100DB000010062F17F02FD2A1DD8B3F1004F40EB24
:100DC000C25008BF20F00100704790F0000F0CF0F7
:100DD000004C08BF49024CEA502040EA51207F3ABB
:100DE000C2BFD2F1FF0340EAC250704740F4000096
:100DF0004FF00003013A5DDC12F1190FDCBF00F087
:100E000000407047C2F10002410021FA02F1C2F134
:100E1000200200FA02FC5FEA310040F1000053EAD0
:100E20004C0308BF20EADC70704792F0000F00F01E
:100E3000004C02BF400010F4000F013AF9D040EA24
:100E40000C0093F0000F01F0004C02BF490011F4B8
:100E5000000F013BF9D041EA0C018FE70CEAD153B6
:100E600092EA0C0F18BF93EA0C0F0AD030F0004C36
:100E700018BF31F0004CD8D180EA010000F00040EA
:100E8000704790F0000F17BF90F0004F084691F0A8
:100E9000000F91F0004F14D092EA0C0F01D14202E2
:100EA0000FD193EA0C0F03D14B0218BF084608D1AB
:100EB00080EA010000F0004040F0FE4040F40000F5
:100EC000704740F0FE4040F4400070474FF0FF0C88
:100ED0001CEAD0521EBF1CEAD15392EA0C0F93EACF
:100EE0000C0F69D0A2EB030280EA010C49024FEA21
:100EF000402037D04FF0805343EA111143EA1013DA
:100F00000CF000408B4238BF5B0042F17D024FF491
:100F1000000C8B4224BF5B1A40EA0C00B3EB510F6C
:100F200024BFA3EB510340EA5C00B3EB910F24BF55
:100F3000A3EB910340EA9C00B3EBD10F24BFA3EBDA
:100F4000D10340EADC001B0118BF5FEA1C1CE0D1A2
:100F5000FD2A3FF650AF8B4240EBC25008BF20F055
:100F6000010070470CF0004C4CEA50207F32C2BFA9
:100F7000D2F1FF0340EAC250704740F400004FF046
:100F80000003013A37E792F0000F00F0004C02BF77
:100F9000400010F4000F013AF9D040EA0C0093F041
:100FA000000F01F0004C02BF490011F4000F013B9B
:100FB000F9D041EA0C0195E70CEAD15392EA0C0F03
:100FC00008D142027FF47DAF93EA0C0F7FF470AF3B
:100FD000084676E793EA0C0F04D14B023FF44CAF7E
:100FE00008466EE730F0004C18BF31F0004CCAD113
:100FF00030F000427FF45CAF31F000437FF43CAF4F
:101000005FE700BF4FF0FF3C06E000BF4FF0010C70
:1010100002E000BF4FF0010C4DF804CD4FEA400252
:101020004FEA41037FEA226C18BF7FEA236C11D09C
:1010300001B052EA530C18BF90EA010F58BFB2EB4F
:10104000030088BFC81738BF6FEAE17018BF40F0CF
:10105000010070477FEA226C02D15FEA402C05D183
:101060007FEA236CE4D15FEA412CE1D05DF8040B08
:10107000704700BF844608466146FFE70FB5FFF79B
:10108000C9FF002848BF10F1000F0FBD4DF808ED53
:10109000FFF7F4FF0CBF012000205DF808FB00BF44
:1010A0004DF808EDFFF7EAFF34BF012000205DF89E
:1010B00008FB00BF4DF808EDFFF7E0FF94BF0120EB
:1010C00000205DF808FB00BF4DF808EDFFF7D2FFE8
:1010D00094BF012000205DF808FB00BF4DF808ED2B
:1010E000FFF7C8FF34BF012000205DF808FB00BFF8
:1010F0004FEA4002B2F1FE4F0FD34FF09E03B3EB25
:1011000012620DD94FEA002343F0004310F0004F64
:1011100023FA02F018BF404270474FF000007047BA
:1011200012F1610F01D1420205D110F0004008BF59
:101130006FF0004070474FF00000704780B500AF7F
:101140004FF4E131002001F0D5FC00BF80BD00006C
:1011500090B585B000AF78607B681B68884A934281
:1011600040F0958100F0F0FD864B1B68864A1360C5
:10117000864B1B68844A5360854B1B68824A936088
:10118000844B1B68804AD3607F4B5B687E4A9268C1
:1011900011461846FFF7E6FD03461C467A4B1B68CE
:1011A000794AD26811461846FFF7DCFD0346194616
:1011B0002046FFF7CFFC034619461846FFF7CAFC46
:1011C00003461A46744B1A606F4B1B686E4A1268CE
:1011D00011461846FFF7C6FD03461C466A4B5B687E
:1011E000694A526811461846FFF7BCFD0346194686
:1011F0002046FFF7AFFC03461C46634B9B68624AE0
:10120000926811461846FFF7ADFD03461946204681
:10121000FFF79EFC03461C465B4BDB685A4AD268CC
:1012200011461846FFF79EFD034619462046FFF774
:101230008FFC03461A46594B1A60534B1B68524A9F
:10124000526811461846FFF78DFD03461C464E4B6B
:101250009B684D4AD26811461846FFF783FD034646
:1012600019462046FFF776FC034619461846FFF755
:1012700071FC03461A464A4B1A60434B5B68424A6C
:10128000D26811461846FFF76DFD03461C463E4BDB
:101290001B683D4A926811461846FFF763FD0346F6
:1012A00019462046FFF754FC034619461846FFF737
:1012B00051FC03461A463B4B1A60334B1B68324ABB
:1012C000126811461846FFF74DFD03461C462E4B8B
:1012D0005B682D4A526811461846FFF743FD0346E6
:1012E00019462046FFF734FC03461C46264B9B68F4
:1012F000254A926811461846FFF734FD0346194601
:101300002046FFF725FC03461C461F4BDB681E4AA0
:10131000D26811461846FFF725FD034619462046B8
:10132000FFF718FC03461A461F4B1A601D4B1B683B
:101330001846FFF789F802460B46C7E90223D7E9AA
:101340000201FFF789FB0346002BB8BF5B42002B6D
:101350002EDDD7E9022308A1D1E9000105F0EEFE58
:1013600002460B4610461946FFF79EFB03460F4AFE
:1013700013608CE0AFF30080182D4454FB21F93F3B
:10138000002C01402000002000000020340200203A
:10139000380200203C020020D8030020E003002097
:1013A000F4030020F8030020640300201004002050
:1013B000D7E9020108F08CF902460B46104619469F
:1013C000FFF772FB0346364A1360364B1B68364AFA
:1013D00012681146184608F0A9F90346334A13600B
:1013E000334B1B68334A12681146184608F09EF9C1
:1013F0000346314A13602A4B1B681846FFF724F84E
:1014000025A3D3E90023FFF777F802460B461046E1
:101410001946FFF749FB0346214A1360264B1B6818
:10142000184608F01FF90446234B1B68184608F0BD
:10143000E5F803461946204608F078F903461E4AA7
:1014400013601D4B1B681846FEF7FEFF12A3D3E97D
:101450000023FFF751F802460B4610461946FFF7E6
:1014600023FB0346144A1360104B1B681846FEF713
:10147000EBFF09A3D3E90023FFF73EF802460B4632
:1014800010461946FFF710FB0346084A136000BFD9
:101490001437BD4690BD00BFF8C1631ADCA54C40AF
:1014A00010040020F4030020640300201404002032
:1014B000D8030020E003002000040020B0B582B073
:1014C00002AF712000F0E2FA0346012B05D100F0D3
:1014D000A7FD642000F06EF80BE0164B1B6801338B
:1014E000144A1360134B1B681A461349002001F07D
:1014F000AFFB124803F0B0FF114803F0ADFF114BF2
:101500001B681846FEF7A0FF04460D460E4B1B68ED
:101510001846FEF799FF02460B46CDE90023224606
:101520002B460A49002001F093FB0A2000F042F804
:10153000E5E700BF1C0200201CAB0008C00400202F
:1015400008050020140400201004002000AB00084F
:1015500080B584B000AF01F04BFC00F036F8144BBE
:101560009B69134A43F020039361114B9B6903F07D
:101570002003FB60FB680E4B9B690D4A43F0080398
:1015800093610B4B9B6903F00803BB60BB68084B7E
:101590009B69074A43F004039361054B9B6903F081
:1015A00004037B607B6800BF1037BD4680BD00BF71
:1015B0000010024080B582B000AF7860786801F01A
:1015C00079FC00BF0837BD4680BD80B590B000AF44
:1015D00007F1180328220021184605F047F93B1DA2
:1015E00000221A605A609A60DA601A610123BB61B6
:1015F0004FF48033FB6100233B620123BB62022373
:101600007B634FF48033BB634FF4E013FB6307F15C
:101610001803184603F0B6FA0346002B01D000F079
:1016200019F80F237B600223BB600023FB604FF49B
:1016300080633B6100237B613B1D0221184603F060
:1016400021FD0346002B01D000F004F800BF403715
:10165000BD4680BD80B400AF72B600BFFEE700009B
:1016600080B485B000AF154B9B69144A43F0010369
:101670009361124B9B6903F00103BB60BB680F4B86
:10168000DB690E4A43F08053D3610C4BDB6903F0F6
:1016900080537B607B680A4B5B68FB60FB6823F0D0
:1016A000E063FB60FB6843F00073FB60044AFB6887
:1016B000536000BF1437BD4680BC70470010024025
:1016C0000000014080B400AFFEE780B400AFFEE749
:1016D00080B400AFFEE780B400AFFEE780B400AF97
:1016E000FEE780B400AF00BFBD4680BC704780B449
:1016F00000AF00BFBD4680BC704780B400AF00BFE4
:10170000BD4680BC704780B500AF01F0B7FB00BF9D
:1017100080BD000080B500AF024801F067FE00BF49
:1017200080BD00BF5005002080B500AF024803F027
:10173000E5FE00BF80BD00BF0805002080B500AFFA
:10174000024803F0DBFE00BF80BD00BF080500209B
:1017500080B500AF024803F0D1FE00BF80BD00BFDE
:101760000805002080B500AF024803F0C7FE00BFA7
:1017700080BD00BF0805002080B500AF024803F01F
:10178000BDFE00BF80BD00BFC004002080B500AF1B
:10179000024804F01BFB00BF80BD00BF9405002081
:1017A00080B400AF01231846BD4680BC704780B5A9
:1017B00082B000AF7860396005F02EF8034616223B
:1017C0001A604FF0FF3318460837BD4680BD80B51C
:1017D00082B000AF78604FF0FF317868FFF7E7FF25
:1017E000FEE780B586B000AFF860B9607A6000238C
:1017F0007B610AE0AFF300800146BB685A1CBA6007
:10180000CAB21A707B6901337B617A697B689A423C
:10181000F0DB7B6818461837BD4680BD80B586B0C2
:1018200000AFF860B9607A6000237B6109E0BB68B3
:101830005A1CBA601B781846AFF300807B690133ED
:101840007B617A697B689A42F1DB7B6818461837BE
:10185000BD4680BD80B483B000AF78604FF0FF33E9
:1018600018460C37BD4680BC704780B483B000AFCB
:10187000786039603B684FF400525A600023184684
:101880000C37BD4680BC704780B483B000AF786031
:10189000012318460C37BD4680BC704780B485B024
:1018A00000AFF860B9607A60002318461437BD466F
:1018B00080BC704780B586B000AF7860144A154B85
:1018C000D31A7B617B693B61134B1B68002B02D1F0
:1018D000114B124A1A60104B1A687B6813443A691C
:1018E0009A4207D204F098FF03460C221A604FF088
:1018F000FF3309E0084B1B68FB60074B1A687B68E5
:101900001344054A1360FB6818461837BD4680BD6E
:10191000005000200004000020020020F0050020FC
:1019200080B400AF00BFBD4680BC70470D488546FF
:10193000FFF7F6FF0C480D490D4A002302E0D4588A
:10194000C4500433C4188C42F9D30A4A0A4C002309
:1019500001E013600432A242FBD304F063FF04F001
:101960004FFFFEE700500020000000200002002092
:1019700054B3000800020020EC050020FEE780B40C
:1019800087B000AFF860B9607A600123FB75FB682F
:1019900000221A60FB6800225A60FB687A689A602D
:1019A000FB68BA68DA60FB7D18461C37BD4680BC10
:1019B0007047000080B500AF124B134A1A60114BFC
:1019C000124A5A600F4B00229A600E4B0022DA60D6
:1019D0000C4B4FF480421A610A4B00225A61094BAA
:1019E00000229A61074B0022DA61064B00221A623C
:1019F000044801F0CBFF0346002B01D0FFF72AFE7D
:101A000000BF80BD2404002000540040801A06005E
:101A100080B588B000AF786007F1100300221A602B
:101A20005A609A60DA607B681B68154A934223D13A
:101A3000144B9B69134A43F008039361114B9B6954
:101A400003F00803FB60FB68C0233B6112237B614A
:101A50000323FB6107F1100319460B4801F0FAFD5F
:101A6000084BDB69074A43F40013D361054BDB697C
:101A700003F40013BB60BB6800BF2037BD4680BDC8
:101A80000054004000100240000C014080B586B0B8
:101A900002AF0346FB717523BB73D023FB7300BFFA
:101AA000FB7B99B207F10E024FF47A730093012386
:101AB0000F4802F0AFF80346002BF1D100BFFB7BCB
:101AC00099B24FF47A73009301230A4A084802F04E
:101AD0009FF90346002BF2D1064B1B78FA799A4204
:101AE00001D1012300E0002318461037BD4680BD18
:101AF00024040020D403002080B586B002AF034642
:101B0000FB71D023FB736B233B73FB797B7300BFAB
:101B1000FB7B99B207F10C02642300930223054872
:101B200002F078F80346002BF2D100BF00BF103757
:101B3000BD4680BD2404002080B586B002AF0346B8
:101B4000FB71D023FB731C23FB7200BFFB7B99B29C
:101B500007F10B024FF47A7300930123234802F03C
:101B600059F80346002BF1D100BFFB7B99B207F176
:101B70000A024FF47A73009301231C4802F048F9DB
:101B80000346002BF1D11C233B73BB7A5BB223F0DD
:101B900018035AB297F9073013435BB2DBB27B7379
:101BA00000BFFB7B99B207F10C0264230093022370
:101BB0000E4802F02FF80346002BF2D11D233B7391
:101BC00005237B7300BFFB7B99B207F10C024FF436
:101BD0007A7300930223054802F01CF80346002B99
:101BE000F1D100BF00BF1037BD4680BD24040020E6
:101BF00080B586B002AF0346FB71D023FB731B2375
:101C00003B73FB797B7300BFFB7B99B207F10C023E
:101C1000642300930223054801F0FCFF0346002BD8
:101C2000F2D100BF00BF1037BD4680BD24040020A4
:101C300080B584B002AFD023FB7100BFFB7999B2AD
:101C4000032302223F4802F043FB0346002BF5D159
:101C50006B233B7100237B7100BFFB7999B23A1D66
:101C6000642300930223374801F0D4FF0346002B7E
:101C7000F3D1642001F01EF90120FFF73DFF1A2384
:101C80003B7109237B7100BFFB7999B23A1D642334
:101C9000009302232B4801F0BDFF0346002BF3D134
:101CA00019233B7107237B7100BFFB7999B23A1D61
:101CB000642300930223234801F0ACFF0346002B6A
:101CC000F3D10020FFF738FF0020FFF791FF6A23D0
:101CD0003B7100237B7100BFFB7999B23A1D6423ED
:101CE00000930223174801F095FF0346002BF3D120
:101CF00038233B7101237B7100BFFB7999B23A1DF8
:101D00004FF47A73009302230E4801F083FF0346D9
:101D1000002BF2D137233B7122237B7100BFFB796B
:101D200099B23A1D4FF47A7300930223054801F0EB
:101D300071FF0346002BF2D100BF00BF0837BD463C
:101D400080BD00BF24040020B0B588B002AF3B23A3
:101D5000FB71D023FB7500BFFB7D99B2FA1D4FF4D8
:101D60007A7300930123984801F054FF0346002B37
:101D7000F2D100BFFB7D99B207F108024FF47A73EC
:101D800000930E23904802F043F80346002BF1D154
:101D90003B7A1B021AB27B7A1BB213431AB28B4BEB
:101DA0001A80BB7A1B021AB2FB7A1BB213431AB217
:101DB000874B1A803B7B1B021AB27B7B1BB21343FF
:101DC0001AB2844B1A803B7C1B021AB27B7C1BB27A
:101DD00013431AB2804B1A80BB7C1B021AB2FB7CE5
:101DE0001BB213431AB27D4B1A803B7D1B021AB201
:101DF0007B7D1BB213431AB2794B1A80734BB3F934
:101E000000301A46774B1B68D31A1846FEF756FF68
:101E1000034675491846FEF7A5FF03464FF08D416E
:101E20001846FFF753F803461A46704B1A60684B82
:101E3000B3F900301A466E4B1B68D31A1846FEF7EA
:101E40003DFF034668491846FEF78CFF03464FF0F6
:101E50008D411846FFF73AF803461A46654B1A605B
:101E60005C4BB3F900301A46634B1B68D31A184613
:101E7000FEF724FF03465C491846FEF773FF03464E
:101E80004FF08D411846FFF721F803461A465B4B89
:101E90001A60514BB3F900301A46594B1B68D31ADC
:101EA0001846FEF70BFF034656491846FFF70EF893
:101EB00003461846FEF7C8FA41A3D3E90023FEF70C
:101EC0001BFB02460B46104619464FF000024E4BD4
:101ED000FEF73CFC02460B4610461946FEF7E4FDB1
:101EE00003464A4A13603D4BB3F900301A46484B4B
:101EF0001B68D31A1846FEF7E1FE0346414918460F
:101F0000FEF7E4FF03461846FEF79EFA2CA3D3E93A
:101F10000023FEF7F1FA02460B46104619464FF031
:101F20000002394BFEF712FC02460B4610461946DA
:101F3000FEF7BAFD0346374A1360294BB3F9003068
:101F40001A46354B1B68D31A1846FEF7B7FE0346F0
:101F50002C491846FEF7BAFF03461846FEF774FAF6
:101F600017A3D3E90023FEF7C7FA02460B46104633
:101F700019464FF00002244BFEF7E8FB02460B46E1
:101F800010461946FEF790FD0346244A13601F4B86
:101F90001868204B1968214B1C68144B1D68154BA1
:101FA0001B68164A1268019200932B46224600F0E5
:101FB00093F900BF1837BD46B0BD00BFAFF3008036
:101FC000182D4454FB21094024040020E403002080
:101FD000DE030020600300207003002008040020BE
:101FE000DC0300206803002000002041D003002013
:101FF000EC03002004040020F00300206C03002008
:1020000018040020000003430080664020040020E4
:102010000C0400201C040020FC030020E803002026
:1020200080B588B002AF3B23FB70D023FB74002344
:102030007B618AE000BFFB7C99B2FA1C4FF47A7393
:10204000009301236B4801F0E5FD0346002BF2D11C
:1020500000BFFB7C99B23A1D4FF47A7300930E23B4
:10206000644801F0D5FE0346002BF2D13B791B02F8
:102070001AB27B791BB213431AB25F4B1A80BB7939
:102080001B021AB2FB791BB213431AB25B4B1A80C4
:102090003B7A1B021AB27B7A1BB213431AB2584B1B
:1020A0001A803B7B1B021AB27B7B1BB213431AB212
:1020B000544B1A80BB7B1B021AB2FB7B1BB213432F
:1020C0001AB2514B1A803B7C1B021AB27B7C1BB2AA
:1020D00013431AB24D4B1A80474BB3F900301A46DE
:1020E0004B4B1B6813444A4A1360444BB3F900300E
:1020F0001A46484B1B681344464A1360404BB3F9D9
:1021000000301A46444B1B681344434A13603D4B4E
:10211000B3F900301A46414B1B6813443F4A136021
:10212000394BB3F900301A463D4B1B6813443C4A07
:102130001360364BB3F900301A463A4B1B68134410
:10214000384A13607B6901337B617B69632B7FF7BE
:1021500071AF2F4B1B68344A82FB03125211DB17FD
:10216000D31A2B4A13602B4B1B682F4A82FB031296
:102170005211DB17D31A274A1360274B1B682A4AD0
:1021800082FB03125211DB17D31A234A1360234B2D
:102190001B68254A82FB03125211DB17D31A1F4A10
:1021A00013601F4B1B68204A82FB03125211DB177E
:1021B000D31A1B4A13601B4B1B681B4A82FB03127A
:1021C0005211DB17D31A174A1360134B1B68002BED
:1021D00006DD114B1B68A3F580430F4A136005E031
:1021E0000D4B1B6803F580430B4A136000BF183783
:1021F000BD4680BD24040020E4030020DE0300204F
:10220000600300207003002008040020DC0300208D
:1022100068030020EC030020F003002018040020D5
:102220000C040020FC0300201F85EB5180B586B014
:1022300000AF0123FB743B4600221A605A609A608B
:10224000DA6001237B600023BB600223FB60002374
:102250007B6116E00F4A7B69DB0013449B883B607F
:102260000C4A7B6952F833303A461146184601F061
:10227000F1F97B69DBB2184600F00EF87B69013397
:102280007B617B69002BE5DDFB7C18461837BD467A
:1022900080BD00BF1400002080B582B000AF0346AF
:1022A000FB71FB79002B11D1FB790A4A52F83300FC
:1022B000FB79084ADB0013449988FB79054ADB0067
:1022C0001344DB791A4601F049FB00E000BF0837F0
:1022D000BD4680BD1400002090B58FB000AFF860FF
:1022E000B9607A603B604FF000013868FEF7CEFEBF
:1022F0000346002B10D04FF00001B86CFEF7C6FE6D
:102300000346002B08D04FF00001F86CFEF7BEFE2C
:102310000346002B40F0638139683868FEF722FDE0
:1023200003461C46B96CB86CFEF71CFD0346194603
:102330002046FEF70FFC03461C46F96CF86CFEF7CE
:1023400011FD034619462046FEF704FC03461846D5
:1023500000F082FA7863796B3868FEF703FD034674
:102360003B60796BB86CFEF7FDFC0346BB64796B90
:10237000F86CFEF7F7FC0346FB64764B1B68764A65
:10238000126811461846FEF7EDFC03461C46734BD7
:102390001B68734A126811461846FEF7E3FC0346B1
:1023A00019462046FEF7D4FB03463B636B4B1B6884
:1023B000684A126811461846FEF7D4FC03461C46CC
:1023C000674B1B68644A126811461846FEF7CAFC40
:1023D000034619462046FEF7BDFB0346FB625F4BF2
:1023E0001B685E4A126811461846FEF7BBFC03469E
:1023F0004FF07C511846FEF7ABFB03461C46564B8C
:102400001B68554A126811461846FEF7ABFC034696
:1024100019462046FEF79EFB0346BB62B96AB86CBC
:10242000FEF7A0FC03461C46F96AF86CFEF79AFC1E
:10243000034619462046FEF78BFB03467B62396B49
:10244000F86CFEF78FFC03461C46B96A3868FEF745
:1024500089FC034619462046FEF77AFB03463B6299
:10246000F96A3868FEF77EFC03461C46396BB86C87
:10247000FEF778FC034619462046FEF769FB034643
:10248000FB61384B1B684FF000011846FEF726FE33
:102490000346002B70D0334B1B68796A1846FEF751
:1024A00061FC034630491846FEF75CFC03461A46B9
:1024B0002E4B1B6819461046FEF74CFB03461A4686
:1024C0002A4B1A60274B1B68396A1846FEF74AFCEC
:1024D000034625491846FEF745FC03461A46244B99
:1024E0001B6819461046FEF735FB03461A46204B7B
:1024F0001A601C4B1B68F9691846FEF733FC03464B
:1025000019491846FEF72EFC03461A46194B1B685C
:1025100019461046FEF71EFB03461A46154B1A6075
:10252000124B1B681946F868FEF714FB0346FB6064
:102530000F4B1B681946B868FEF70CFB0346BB60DF
:102540000C4B1B6819467868FEF704FB03467B605A
:102550001EE000BF340200203C02002020000020CA
:1025600038020020240200200AD7233C2802002041
:102570002C02002030020020954B4FF000021A6020
:10258000944B4FF000021A60934B4FF000021A6018
:10259000924B1B68796A1846FEF7E4FB034619461E
:1025A000F868FEF7D7FA0346FB608C4B1B68396A64
:1025B0001846FEF7D7FB03461946B868FEF7CAFA75
:1025C0000346BB60854B1B68F9691846FEF7CAFBDA
:1025D000034619467868FEF7BDFA03467B608049DA
:1025E000F868FEF7BFFB0346FB607D49B868FEF75D
:1025F000B9FB0346BB607A497868FEF7B3FB034634
:102600007B60784B1B68BB61774B1B687B61774BAA
:102610001B683B617B6983F00043F9681846FEF74D
:10262000A1FB03461C46B9683869FEF79BFB0346CD
:1026300019462046FEF78CFA03461C466C4B1B6875
:1026400079681846FEF78EFB034619462046FEF7CA
:102650007FFA03461A46634B1B6819461046FEF77D
:1026600079FA03461A465F4B1A60F968B869FEF7B3
:1026700079FB03461C4679683869FEF773FB03460D
:1026800019462046FEF766FA03461C46584B1B685F
:10269000B9681846FEF766FB034619462046FEF762
:1026A00057FA03461A46504B1B6819461046FEF768
:1026B00051FA03461A464C4B1A60B968B869FEF7DE
:1026C00051FB03461C4679687869FEF74BFB0346CD
:1026D00019462046FEF73CFA03461C46444B1B684D
:1026E000F9681846FEF73EFB034619462046FEF7FA
:1026F00031FA03461A463D4B1B6819461046FEF751
:1027000029FA03461A46394B1A607968B869FEF708
:1027100029FB03461C46B9687869FEF723FB03468C
:1027200019462046FEF716FA03461C46F968386932
:10273000FEF718FB034619462046FEF709FA034642
:102740001A462B4B1B6819461046FEF703FA034640
:102750001A46274B1A60234B1B68224A12681146FF
:102760001846FEF7FFFA03461C461F4B1B681E4A1D
:10277000126811461846FEF7F5FA03461946204638
:10278000FEF7E8F903461C46184B1B68174A126807
:1027900011461846FEF7E6FA034619462046FEF7AC
:1027A000D9F903461C46124B1B68114A12681146A0
:1027B0001846FEF7D7FA034619462046FEF7CAF92F
:1027C0000346184600F048F87863064B1B6811E092
:1027D000280200202C020020300200201C000020D3
:1027E0000AD7A33B2000002034020020380200203A
:1027F0003C020020796B1846FEF7B4FA03461A46ED
:10280000114B1A60114B1B68796B1846FEF7AAFA38
:1028100003461A460D4B1A600D4B1B68796B184620
:10282000FEF7A0FA03461A46094B1A60094B1B68CB
:10283000796B1846FEF796FA03461A46054B1A605E
:1028400000BF3C37BD4690BD200000203402002070
:10285000380200203C02002080B586B000AF7860CE
:102860004FF07C517868FEF77DFA03467B617B6808
:102870003B6107F110031B68FB60FB685A10134BA8
:102880009B1AFB6007F10C031B683B613B6979698C
:102890001846FEF767FA03461A463B691946104682
:1028A000FEF760FA034619464FF07F50FEF750F9E5
:1028B00003461A463B6919461046FEF753FA03468B
:1028C0003B613B6918461837BD4680BDDF59375F0D
:1028D00080B586B000AF07F1080300221A605A6085
:1028E0009A60DA603B4600221A605A601E4B1F4A0B
:1028F0001A601D4B41F61F425A601B4B00229A6022
:10290000194B6322DA60184B00221A61164B002221
:102910005A61154B00229A61134802F04DFD03469F
:10292000002B01D0FEF796FE4FF48053BB6007F1F9
:10293000080319460C4802F0E9FE0346002B01D0BB
:10294000FEF788FE00233B6000237B603B46194670
:10295000054803F0BBF80346002B01D0FEF77AFED2
:1029600000BF1837BD4680BD08050020002C01407F
:1029700080B586B000AF07F1080300221A605A60E4
:102980009A60DA603B4600221A605A601D4B1E4A6C
:102990001A601C4B41F61F425A601A4B00229A6083
:1029A000184B6322DA60174B00221A61154B002284
:1029B0009A61144802F000FD0346002B01D0FEF797
:1029C00049FE4FF48053BB6007F1080319460D48D8
:1029D00002F09CFE0346002B01D0FEF73BFE0023D5
:1029E0003B6000237B603B461946064803F06EF8C7
:1029F0000346002B01D0FEF72DFE00BF1837BD4661
:102A000080BD00BFC00400200004004080B584B039
:102A100000AF78607B681B68264A93422CD1264B16
:102A20009B69254A43F400639361234B9B6903F43C
:102A30000063FB60FB6800220021182000F035FBDA
:102A4000182000F04EFB00220021192000F02DFB81
:102A5000192000F046FB002200211A2000F025FB7F
:102A60001A2000F03EFB002200211B2000F01DFB7D
:102A70001B2000F036FB18E07B681B680F4A93426E
:102A800013D10D4BDB690C4A43F00203D3610A4BAF
:102A9000DB6903F00203BB60BB68002200211D203C
:102AA00000F003FB1D2000F01CFB00BF1037BD46EB
:102AB00080BD00BF002C0140001002400004004017
:102AC00080B483B000AF00237B6007E0084A7B68D6
:102AD000134400221A707B6801337B607B68002BF3
:102AE000F4DD012318460C37BD4680BC704700BF9B
:102AF0004002002080B584B000AF03463960FB710E
:102B00000023FB73FB79002B6DD1394B394A1A60D6
:102B1000374A3B685360364B00229A60344B0022A0
:102B2000DA60334B00221A61314B0C225A61304B70
:102B300000229A612E4B0022DA612D4803F036F80C
:102B4000FB791B012C4A13444FF480722B49184621
:102B5000FEF715FF2A4B5B69294A43F001035361D5
:102B6000274B5B6903F00103BB60BB6800220021B7
:102B70000F2000F09AFA0F2000F0B3FA1C4803F07F
:102B800015F80346002B02D00023FB732AE0012333
:102B9000FB73FB791B4A0121D1544FF48072174912
:102BA000134803F0E2F80346002B01D00023FB7327
:102BB000FB79114A1B01134408331968124B1B6837
:102BC0005A68FB798A1A0C491B010B441A60FA797E
:102BD000FB79094912010A44126807491B010B4499
:102BE00004331A6000BFFB7B18461037BD4680BD1A
:102BF00094050020003801404402002054020020C7
:102C000000100240400200205005002080B586B030
:102C100000AF0346B9607A60FB7300237B61FB7BE6
:102C2000002B0ED17B689AB26423B968074803F081
:102C30000AF80346FB74FB7C002B01D17B687B61A7
:102C400000BF7B6918461837BD4680BD940500203B
:102C50000EB480B5C7B000AF0246FB1D1A7007F571
:102C6000947207F10C031A6007F10C0307F11000CE
:102C70001B68D7F824214FF4807104F093FAC7F849
:102C80001401D7F8142107F11001FB1D1B78184619
:102C9000FFF7BCFFC7F81001D7F81031184607F549
:102CA0008E77BD46BDE8804003B0704780B483B0E6
:102CB00000AF786000BF0C37BD4680BC704780B461
:102CC00083B000AF786000BF0C37BD4680BC704752
:102CD00080B588B000AF786007F1100300221A6059
:102CE0005A609A60DA607B681B68334A93425FD10E
:102CF000324B9B69314A43F4804393612F4B9B696C
:102D000003F48043FB60FB682C4B9B692B4A43F028
:102D100004039361294B9B6903F00403BB60BB6808
:102D20004FF400733B6102237B610323FB6107F1D6
:102D300010031946224800F08DFC4FF480633B617C
:102D400000237B610023BB6107F1100319461C4877
:102D500000F080FC1B4B1C4A1A601A4B00225A6080
:102D6000184B00229A60174B8022DA60154B002224
:102D70001A61144B00225A61124B20229A61114BA6
:102D80000022DA610F4800F0C7F90346002B01D09A
:102D9000FEF760FC7B680B4A9A630A4A7B685362C1
:102DA00000220021252000F080F9252000F099F96B
:102DB00000BF2037BD4680BD0038014000100240F2
:102DC00000080140500500205800024080B500AFC7
:102DD000FEF7BEFBFFF774FEFFF728FAFEF7EAFDE9
:102DE000FFF776FDFFF7C4FDFEF722FF00BF80BDB1
:102DF00080B500AF084B1B68074A43F0100313600F
:102E0000032000F047F9002000F008F8FEF728FC46
:102E10000023184680BD00BF0020024080B582B06C
:102E200000AF7860124B1A68124B1B7819464FF4AA
:102E30007A73B3FBF1F3B2FBF3F3184600F05FF9DA
:102E40000346002B01D001230EE07B680F2B0AD82C
:102E5000002279684FF0FF3000F027F9064A7B68BE
:102E60001360002300E0012318460837BD4680BDEB
:102E700010000020280000202400002080B400AFB3
:102E8000054B1B781A46054B1B681344034A136015
:102E900000BFBD4680BC704728000020D805002038
:102EA00080B400AF024B1B681846BD4680BC70471B
:102EB000D805002080B584B000AF7860FFF7F0FF40
:102EC000B8607B68FB60FB68B3F1FF3F05D00A4B3D
:102ED0001B781A46FB681344FB6000BFFFF7E0FF56
:102EE0000246BB68D31AFA689A42F7D800BF00BFFF
:102EF0001037BD4680BD00BF2800002080B485B0DB
:102F000000AF78607B6803F00703FB600C4BDB6865
:102F1000BB60BA684FF6FF031340BB60FB681A0240
:102F2000BB68134343F0BF6343F40033BB60044A00
:102F3000BB68D36000BF1437BD4680BC704700BF7C
:102F400000ED00E080B400AF044BDB681B0A03F027
:102F500007031846BD4680BC704700BF00ED00E087
:102F600080B483B000AF0346FB7197F90730002BA4
:102F70000BDBFB7903F01F02064997F907305B0969
:102F8000012000FA02F241F8232000BF0C37BD46B1
:102F900080BC704700E100E080B483B000AF03461E
:102FA0003960FB7197F90730002B0ADB3B68DAB216
:102FB0000C4997F907301201D2B20B4483F8002371
:102FC0000AE03B68DAB20849FB7903F00F03043BDF
:102FD0001201D2B20B441A7600BF0C37BD4680BC3A
:102FE000704700BF00E100E000ED00E080B489B070
:102FF00000AFF860B9607A60FB6803F00703FB611B
:10300000FB69C3F10703042B28BF0423BB61FB69E1
:103010000433062B02D9FB69033B00E000237B61EC
:103020004FF0FF32BB6902FA03F3DA43BB681A4080
:103030007B699A404FF0FF317B6901FA03F3D94372
:103040007B680B40134318462437BD4680BC70474D
:1030500080B582B000AF78607B68013BB3F1807FC0
:1030600001D301230FE00A4A7B68013B53600F2123
:103070004FF0FF30FFF790FF054B00229A60044BA2
:1030800007221A60002318460837BD4680BD00BFDE
:1030900010E000E080B582B000AF78607868FFF79C
:1030A0002DFF00BF0837BD4680BD80B586B000AF9C
:1030B0000346B9607A60FB7300237B61FFF742FF30
:1030C00078617A68B9687869FFF790FF024697F9E6
:1030D0000F3011461846FFF75FFF00BF1837BD4697
:1030E00080BD80B582B000AF0346FB7197F9073011
:1030F0001846FFF735FF00BF0837BD4680BD80B5D5
:1031000082B000AF78607868FFF7A2FF03461846E8
:103110000837BD4680BD000080B485B000AF786040
:103120000023FB607B68002B01D1012343E07B6817
:103130001B681A46224B1344224AA2FB03231B0995
:103140009A007B681A647B681F4ADA637B680222F4
:1031500083F821207B681B681B68FB60FB6823F4F5
:103160007F5323F03003FB607B685A687B689B6861
:103170001A437B68DB681A437B681B691A437B68C8
:103180005B691A437B689B691A437B68DB6913435D
:10319000FA681343FB607B681B68FA681A607B68F7
:1031A00000229A637B68012283F821207B68002239
:1031B00083F82020002318461437BD4680BC704792
:1031C000F8FFFDBFCDCCCCCC0000024080B586B06E
:1031D00000AFF860B9607A603B600023FB75FB6864
:1031E00093F82030012B01D102234AE0FB68012231
:1031F00083F82020FB6893F82130012B3AD1FB683B
:10320000022283F82120FB6800229A63FB681B6876
:103210001A68FB681B6822F001021A603B687A6832
:10322000B968F86800F0E8F9FB68DB6A002B08D0A1
:10323000FB681B681A68FB681B6842F00E021A6084
:103240000FE0FB681B681A68FB681B6822F0040229
:103250001A60FB681B681A68FB681B6842F00A0268
:103260001A60FB681B681A68FB681B6842F0010261
:103270001A6005E0FB68002283F820200223FB751A
:10328000FB7D18461837BD4680BD80B485B000AFC1
:1032900078600023FB737B6893F82130022B08D001
:1032A0007B6804229A637B68002283F82020012334
:1032B00020E07B681B681A687B681B6822F00E029E
:1032C0001A607B681B681A687B681B6822F0010221
:1032D0001A607B681A6C7B68DB6B012101FA02F2D1
:1032E0005A607B68012283F821207B68002283F8E2
:1032F0002020FB7B18461437BD4680BC7047000079
:1033000080B584B000AF78600023FB737B6893F8CE
:103310002130022B05D07B6804229A630123FB73C2
:1033200051E07B681B681A687B681B6822F00E02FC
:103330001A607B681B681A687B681B6822F00102B0
:103340001A607B681B68224A934229D07B681B68FD
:10335000204A934222D07B681B681F4A93421AD0AE
:103360007B681B681D4A934212D07B681B681C4A0D
:1033700093420AD07B681B681A4A934202D14FF4E9
:1033800080130EE04FF080730BE04FF4803308E0C1
:103390004FF4805305E04FF4807302E0102300E007
:1033A0000123114A53607B68012283F821207B6846
:1033B000002283F820207B685B6B002B03D07B68A6
:1033C0005B6B78689847FB7B18461037BD4680BD1D
:1033D000080002401C00024030000240440002404D
:1033E000580002406C0002400000024080B584B0EA
:1033F00000AF78607B68DB6B1B68FB607B681B68D9
:103400001B68BB607B681B6C04229A40FB681340FE
:10341000002B4FD0BB6803F00403002B4AD07B681D
:103420001B681B6803F02003002B07D17B681B6817
:103430001A687B681B6822F004021A607B681B68AC
:10344000664A934229D07B681B68654A934222D022
:103450007B681B68634A93421AD07B681B68624A88
:10346000934212D07B681B68604A93420AD07B6803
:103470001B685F4A934202D14FF480030EE04FF085
:1034800080630BE04FF4802308E04FF4804305E0B5
:103490004FF4806302E0402300E00423554A536068
:1034A0007B68DB6A002B00F094807B68DB6A7868BD
:1034B00098478EE07B681B6C02229A40FB681340A1
:1034C000002B56D0BB6803F00203002B51D07B6861
:1034D0001B681B6803F02003002B0BD17B681B6863
:1034E0001A687B681B6822F00A021A607B68012256
:1034F00083F821207B681B68384A934229D07B6877
:103500001B68374A934222D07B681B68354A934236
:103510001AD07B681B68344A934212D07B681B68C0
:10352000324A93420AD07B681B68314A934202D1E7
:103530004FF400130EE04FF000730BE04FF4003334
:1035400008E04FF4005305E04FF4007302E020233D
:1035500000E00223274A53607B68002283F8202082
:103560007B689B6A002B34D07B689B6A786898479D
:103570002FE07B681B6C08229A40FB681340002BED
:1035800028D0BB6803F00803002B23D07B681B689E
:103590001A687B681B6822F00E021A607B681A6C3E
:1035A0007B68DB6B012101FA02F25A607B68012221
:1035B0009A637B68012283F821207B68002283F8CC
:1035C00020207B681B6B002B04D07B681B6B78680A
:1035D000984700BF00BF1037BD4680BD08000240BD
:1035E0001C000240300002404400024058000240EB
:1035F0006C0002400000024080B485B000AFF8606B
:10360000B9607A603B60FB681A6CFB68DB6B012178
:1036100001FA02F25A60FB681B683A685A60FB685C
:103620005B68102B08D1FB681B687A689A60FB689E
:103630001B68BA68DA6007E0FB681B68BA689A60C2
:10364000FB681B687A68DA6000BF1437BD4680BC2F
:103650007047000080B48BB000AF78603960002301
:103660007B6200233B6269E101227B6A02FA03F379
:10367000FB613B681B68FA691340BB61BA69FB696F
:103680009A4240F058813B685B689A4A93425ED008
:10369000984A934275D8984A934258D0964A934292
:1036A0006FD8964A934252D0944A934269D8944A2A
:1036B00093424CD0924A934263D8924A934246D066
:1036C000904A93425DD8122B2AD8122B59D801A2C6
:1036D00052F823F04F370008293700083B3700081D
:1036E0007D370008833700088337000883370008D8
:1036F00083370008833700088337000883370008C2
:1037000083370008833700088337000883370008B1
:103710008337000883370008313700084537000831
:10372000794A934213D02CE03B68DB683B6229E086
:103730003B68DB6804333B6224E03B68DB680833AA
:103740003B621FE03B68DB680C333B621AE03B687E
:103750009B68002B02D104233B6213E03B689B680B
:10376000012B05D108233B627B68FA691A6109E0E5
:1037700008233B627B68FA695A6103E000233B62DD
:1037800000E000BFBB69FF2B01D87B6801E07B68CC
:1037900004337B61BB69FF2B02D87B6A9B0002E08C
:1037A0007B6A083B9B003B617B691A680F213B6980
:1037B00001FA03F3DB431A40396A3B6901FA03F368
:1037C0001A437B691A603B685B6803F08053002BE7
:1037D00000F0B1804D4B9B694C4A43F0010393616B
:1037E0004A4B9B6903F00103BB60BB68484A7B6A94
:1037F0009B08023352F82330FB607B6A03F003031B
:103800009B000F2202FA03F3DB43FA681340FB60CC
:103810007B68404A934213D07B683F4A93420DD065
:103820007B683E4A934207D07B683D4A934201D170
:10383000032306E0042304E0022302E0012300E066
:1038400000237A6A02F0030292009340FA6813435D
:10385000FB602F497B6A9B080233FA6841F82320FA
:103860003B685B6803F48033002B06D02D4B1A684D
:103870002C49BB6913430B6006E02A4B1A68BB69ED
:10388000DB43284913400B603B685B6803F400335B
:10389000002B06D0234B5A682249BB6913434B6067
:1038A00006E0204B5A68BB69DB431E4913404B605E
:1038B0003B685B6803F48013002B06D0194B9A68B1
:1038C0001849BB6913438B6006E0164B9A68BB69C5
:1038D000DB43144913408B603B685B6803F40013BF
:1038E000002B21D00F4BDA680E49BB691343CB6024
:1038F00021E000BF00003210000031100000221053
:1039000000002110000012100000111000100240F1
:103910000000014000080140000C0140001001407F
:1039200000140140000401400B4BDA68BB69DB4323
:1039300009491340CB607B6A01337B623B681A689C
:103940007B6A22FA03F3002B7FF48EAE00BF00BF28
:103950002C37BD4680BC70470004014080B483B062
:1039600000AF78600B467B8013467B707B78002B22
:1039700003D07A887B681A6103E07B881A047B682D
:103980001A6100BF0C37BD4680BC704780B584B05B
:1039900000AF78607B68002B01D101232BE17B68AD
:1039A00093F83D30DBB2002B06D17B68002283F810
:1039B0003C207868FEF72CF87B68242283F83D20B1
:1039C0007B681B681A687B681B6822F001021A601A
:1039D0007B681B681A687B681B6842F400421A60A7
:1039E0007B681B681A687B681B6822F400421A60B7
:1039F00001F09CFCF8607B685B68814A934207D8C1
:103A0000FB68804A934294BF01230023DBB206E0A7
:103A1000FB687D4A934294BF01230023DBB2002B55
:103A200001D00123E7E0FB68784AA2FB03239B0C4B
:103A3000BB607B681B685B6823F03F017B681B6889
:103A4000BA680A435A607B681B681B6A23F03F010F
:103A50007B685B686A4A934202D8BB68013309E01D
:103A6000BB684FF4967202FB03F3694AA2FB03237F
:103A70009B0901337A6812680B4313627B681B68E9
:103A8000DB6923F44F4222F0FF027B685B685C49EC
:103A90008B4219D8FB68591E7B685B685B00B1FBE1
:103AA000F3F3591C40F6FC730B40002B0AD0FB6863
:103AB000591E7B685B685B00B1FBF3F30133C3F312
:103AC0000B0351E004234FE07B689B68002B11D16E
:103AD000FB68581E7B6859680B465B000B44B0FBC3
:103AE000F3F30133C3F30B03002B0CBF01230023BB
:103AF000DBB212E0FB68581E7B6859680B469B00DE
:103B00000B4499000B44B0FBF3F30133C3F30B03F5
:103B1000002B0CBF01230023DBB2002B01D00123BB
:103B200022E07B689B68002B0ED1FB68581E7B68E7
:103B300059680B465B000B44B0FBF3F30133C3F34E
:103B40000B0343F400430FE0FB68581E7B68596881
:103B50000B469B000B4499000B44B0FBF3F301337D
:103B6000C3F30B0343F44043796809681343CB6103
:103B70007B681B681B6823F0C0017B68DA697B687F
:103B80001B6A1A437B681B680A431A607B681B68C0
:103B90009B6823F4034323F0FF037A6811697A6872
:103BA000D26811437A6812680B4393607B681B6884
:103BB000DB6823F0FF017B685A697B689B691A43C5
:103BC0007B681B680A43DA607B681B681A687B683D
:103BD0001B6842F001021A607B6800221A647B684D
:103BE000202283F83D207B6800221A637B68002234
:103BF00083F83E20002318461037BD4680BD00BF25
:103C0000A08601007F841E00FF083D0083DE1B4369
:103C1000D34D621080B588B002AFF8607A601A4662
:103C20000B467B8113463B81FFF73AF97861FB68CD
:103C300093F83D30DBB2202B40F0E0807B690093AD
:103C4000192301227049F86800F0C0FD0346002BDB
:103C500001D00223D3E0FB6893F83C30012B01D163
:103C60000223CCE0FB68012283F83C20FB681B6840
:103C70001B6803F00103012B07D0FB681B681A685F
:103C8000FB681B6842F001021A60FB681B681A6837
:103C9000FB681B6822F400621A60FB68212283F82B
:103CA0003D20FB68102283F83E20FB6800221A6446
:103CB000FB687A685A62FB683A895A85FB685B8DB3
:103CC0009AB2FB681A85FB68504ADA6279897B6987
:103CD0003A6AF86800F02AFC0346002B01D0012361
:103CE0008DE000233B61FB681B685B693B61FB68FF
:103CF0001B689B693B613B6966E07A69396AF868D1
:103D000000F03AFE0346002B0DD0FB681B6C042B21
:103D100007D1FB681B681A68FB681B6842F40072D5
:103D20001A6001236BE0FB685B6A1A78FB681B680A
:103D30001A61FB685B6A5A1CFB685A62FB685B8D00
:103D40009BB2013B9AB2FB685A85FB681B8D013B15
:103D50009AB2FB681A85FB681B685B6903F0040371
:103D6000042B1BD1FB681B8D002B17D0FB685B6AF3
:103D70001A78FB681B681A61FB685B6A5A1CFB684F
:103D80005A62FB685B8D9BB2013B9AB2FB685A8515
:103D9000FB681B8D013B9AB2FB681A857A69396A08
:103DA000F86800F02AFE0346002B0DD0FB681B6C60
:103DB000042B07D1FB681B681A68FB681B6842F478
:103DC00000721A6001231AE0FB681B8D002B94D14E
:103DD000FB681B681A68FB681B6842F400721A6073
:103DE000FB68202283F83D20FB68002283F83E20F8
:103DF000FB68002283F83C20002300E002231846E1
:103E00001837BD4680BD00BF020010000000FFFF54
:103E100080B58CB002AFF8607A601A460B467B81A1
:103E200013463B8100233B62FFF73AF87862FB6858
:103E300093F83D30DBB2202B40F03F827B6A009349
:103E4000192301227F49F86800F0C0FC0346002BCB
:103E500001D0022332E2FB6893F83C30012B01D100
:103E600002232BE2FB68012283F83C20FB681B68DD
:103E70001B6803F00103012B07D0FB681B681A685D
:103E8000FB681B6842F001021A60FB681B681A6835
:103E9000FB681B6822F400621A60FB68222283F828
:103EA0003D20FB68102283F83E20FB6800221A6444
:103EB000FB687A685A62FB683A895A85FB685B8DB1
:103EC0009AB2FB681A85FB685F4ADA6279897B6A75
:103ED0003A6BF86800F0ACFB0346002B01D00123DD
:103EE000ECE1FB681B8D002B13D10023FB61FB6809
:103EF0001B685B69FB61FB681B689B69FB61FB6975
:103F0000FB681B681A68FB681B6842F400721A6041
:103F1000C0E1FB681B8D012B1ED1FB681B681A6872
:103F2000FB681B6822F480621A6072B600BF00232F
:103F3000BB61FB681B685B69BB61FB681B689B69B5
:103F4000BB61BB69FB681B681A68FB681B6842F4AD
:103F500000721A6062B635E0FB681B8D022B1ED121
:103F6000FB681B681A68FB681B6842F400621A60F1
:103F700072B600BF00237B61FB681B685B697B61D5
:103F8000FB681B689B697B617B69FB681B681A681F
:103F9000FB681B6822F480621A6062B612E0FB685C
:103FA0001B681A68FB681B6842F480621A60002371
:103FB0003B61FB681B685B693B61FB681B689B6935
:103FC0003B613B6966E1FB681B8D032B00F21F819F
:103FD000FB681B8D012B23D17A6A396BF86800F0DE
:103FE0004DFD0346002B01D0012367E1FB681B68F0
:103FF0001A69FB685B6AD2B21A70FB685B6A5A1C6A
:10400000FB685A62FB681B8D013B9AB2FB681A85FC
:10401000FB685B8D9BB2013B9AB2FB685A8539E124
:10402000FB681B8D022B52D17B6A00933B6B0022F5
:104030000649F86800F0CAFB0346002B08D00123AC
:104040003CE100BF020010000000FFFF040001007F
:1040500072B600BFFB681B681A68FB681B6842F4F5
:1040600000721A60FB681B681A69FB685B6AD2B24F
:104070001A70FB685B6A5A1CFB685A62FB681B8DEE
:10408000013B9AB2FB681A85FB685B8D9BB2013BD2
:104090009AB2FB685A8562B600BFFB681B681A6952
:1040A000FB685B6AD2B21A70FB685B6A5A1CFB68D9
:1040B0005A62FB681B8D013B9AB2FB681A85FB684C
:1040C0005B8D9BB2013B9AB2FB685A85E2E07B6A4A
:1040D00000933B6B00227B49F86800F077FB0346B6
:1040E000002B01D00123E9E0FB681B681A68FB681C
:1040F0001B6822F480621A6072B600BFFB681B68FE
:104100001A69FB685B6AD2B21A70FB685B6A5A1C58
:10411000FB685A62FB681B8D013B9AB2FB681A85EB
:10412000FB685B8D9BB2013B9AB2FB685A85664B7C
:104130001B68DB08654AA2FB03231A0A13469B008F
:104140001344DA00D31A3B623B6A013B3B623B6A91
:10415000002B18D1FB6800221A63FB68202283F829
:104160003D20FB68002283F83E20FB681B6C43F077
:104170002002FB681A6462B600BFFB68002283F865
:104180003C2001239AE0FB681B685B6903F0040391
:10419000042BD9D1FB681B681A68FB681B6842F4C2
:1041A00000721A60FB681B681A69FB685B6AD2B20E
:1041B0001A70FB685B6A5A1CFB685A62FB681B8DAD
:1041C000013B9AB2FB681A85FB685B8D9BB2013B91
:1041D0009AB2FB685A8562B600BFFB681B681A6911
:1041E000FB685B6AD2B21A70FB685B6A5A1CFB6898
:1041F0005A62FB681B8D013B9AB2FB681A85FB680B
:104200005B8D9BB2013B9AB2FB685A8542E07A6AA9
:10421000396BF86800F032FC0346002B01D0012313
:104220004CE0FB681B681A69FB685B6AD2B21A70C3
:10423000FB685B6A5A1CFB685A62FB681B8D013B7A
:104240009AB2FB681A85FB685B8D9BB2013B9AB200
:10425000FB685A85FB681B685B6903F00403042B49
:1042600018D1FB681B681A69FB685B6AD2B21A70C6
:10427000FB685B6A5A1CFB685A62FB681B8D013B3A
:104280009AB2FB681A85FB685B8D9BB2013B9AB2C0
:10429000FB685A85FB681B8D002B7FF494AEFB688E
:1042A000202283F83D20FB68002283F83E20FB6833
:1042B000002283F83C20002300E002231846283720
:1042C000BD4680BD040001001000002089B5F8142F
:1042D00080B58AB002AFF8607A603B600B467B81A4
:1042E000FEF7DEFDF8610123BB61FB6893F83D300A
:1042F000DBB2202B40F01181FB69009319230122CE
:104300008849F86800F062FA0346002B01D00223C6
:1043100004E1FB6893F83C30012B01D10223FDE05E
:10432000FB68012283F83C20FB681B681B6803F0D4
:104330000103012B07D0FB681B681A68FB681B6828
:1043400042F001021A60FB681B681A68FB681B6870
:1043500022F400621A60FB68242283F83D20FB6887
:1043600000221A64FB68704ADA62FB681B681A68EC
:10437000FB681B6842F480721A60FB6900933B681B
:1043800000224FF00111F86800F020FA0346002BDC
:104390000DD0FB681B681B6803F48073B3F5807F46
:1043A00003D1FB684FF400721A640323B6E07B89E3
:1043B000DBB21A46FB681B6802F0FE021A61FEF7C8
:1043C0006FFDF861FB681B685B6903F00203022B59
:1043D0000CBF01230023DBB2FB75FB681B685B6924
:1043E00003F48063B3F5806F0CBF01230023DBB2BD
:1043F000BB7525E0FEF754FD0246FB69D31A3A6807
:104400009A4202D33B68002B03D1FB68A02283F8B9
:104410003D20FB681B685B6903F00203022B0CBFA5
:1044200001230023DBB2FB75FB681B685B6903F4A7
:104430008063B3F5806F0CBF01230023DBB2BB7533
:10444000FB6893F83D30DBB2A02B05D0FB7D002B41
:1044500002D1BB7D002BCDD0FB68202283F83D200C
:10446000FB681B685B6903F00203022B29D1FB6820
:104470001B681A68FB681B6842F400721A6000230C
:104480003B61FB681B685B693B61FB681B689B6960
:104490003B613B69FB690093192301222149F868BC
:1044A00000F094F90346002B01D0012336E0FB68AD
:1044B000202283F83D20FB68002283F83C20002363
:1044C0002CE0FB681B681A68FB681B6842F40072EA
:1044D0001A60FB681B686FF480625A61FB69009385
:1044E000192301220F49F86800F070F90346002BE8
:1044F00001D0012312E0BB690133BB61BA697B685B
:104500009A42FFF432AFFB68202283F83D20FB681B
:10451000002283F83C20012300E0022318462037C4
:10452000BD4680BD020010000000FFFF80B588B0CE
:1045300002AFF8607A603B600B467B81FB68DB6A08
:104540007B617B69082B06D07B69012B03D07B69DB
:1045500013F5803F08D1FB681B681A68FB681B686D
:1045600042F480721A600BE0FB681B6B122B07D1C0
:10457000FB681B681A68FB681B6842F480721A604B
:104580003B6800937B6800224FF00111F86800F04F
:104590001DF90346002B0DD0FB681B681B6803F454
:1045A0008073B3F5807F03D1FB684FF400721A6407
:1045B000032335E0FB681B69B3F5804F08D17B8985
:1045C000DBB21A46FB681B6802F0FE021A611BE0B0
:1045D0007B89DB11DBB203F00603DBB263F00F0370
:1045E000DAB2FB681B681A613B687A680E49F868A2
:1045F00000F043F90346002B01D0012310E07B8932
:10460000DAB2FB681B681A613B687A680749F86888
:1046100000F033F90346002B01D0012300E0002312
:1046200018461837BD4680BD080001000200010091
:1046300080B588B002AFF8607A603B600B467B8142
:10464000FB68DB6A7B61FB681B681A68FB681B6898
:1046500042F480621A607B69082B06D07B69012BCB
:1046600003D07B6913F5803F08D1FB681B681A688B
:10467000FB681B6842F480721A600BE0FB681B6BDE
:10468000112B07D1FB681B681A68FB681B6842F492
:1046900080721A603B6800937B6800224FF0011122
:1046A000F86800F093F80346002B0DD0FB681B68F8
:1046B0001B6803F48073B3F5807F03D1FB684FF46C
:1046C00000721A64032379E0FB681B69B3F5804F1D
:1046D00008D17B89DBB243F00103DAB2FB681B68C7
:1046E0001A615FE07B89DB11DBB203F00603DBB20A
:1046F00063F00F03DAB2FB681B681A613B687A68E3
:104700003049F86800F0B9F80346002B01D00123C6
:1047100054E07B89DAB2FB681B681A613B687A68EF
:104720002949F86800F0A9F80346002B01D00123BD
:1047300044E000233B61FB681B685B693B61FB68ED
:104740001B689B693B613B69FB681B681A68FB68D7
:104750001B6842F480721A603B6800937B680022F9
:104760004FF00111F86800F031F80346002B0DD02E
:10477000FB681B681B6803F48073B3F5807F03D16B
:10478000FB684FF400721A64032317E07B89DB1186
:10479000DBB203F00603DBB263F00E03DAB2FB68B0
:1047A0001B681A613B687A680749F86800F065F889
:1047B0000346002B01D0012300E0002318461837E0
:1047C000BD4680BD080001000200010080B584B034
:1047D00000AFF860B9603B601346FB7125E03B68B1
:1047E000B3F1FF3F21D0FEF75BFB0246BB69D31A52
:1047F0003A689A4202D33B68002B16D1FB6800222C
:104800001A63FB68202283F83D20FB68002283F8AE
:104810003E20FB681B6C43F02002FB681A64FB68B7
:10482000002283F83C20012323E0BB681B0CDBB291
:10483000012B0DD1FB681B685B69DA43BB68134031
:104840009BB2002B0CBF01230023DBB21A460CE005
:10485000FB681B689B69DA43BB6813409BB2002B63
:104860000CBF01230023DBB21A46FB799A42B6D073
:10487000002318461037BD4680BD80B584B000AF18
:10488000F860B9607A603B6051E0FB681B685B6967
:1048900003F48063B3F5806F23D1FB681B681A684B
:1048A000FB681B6842F400721A60FB681B686FF4B7
:1048B00080625A61FB6800221A63FB68202283F839
:1048C0003D20FB68002283F83E20FB681B6C43F010
:1048D0000402FB681A64FB68002283F83C20012371
:1048E00046E07B68B3F1FF3F21D0FEF7D9FA0246DC
:1048F0003B68D31A7A689A4202D37B68002B16D1A0
:10490000FB6800221A63FB68202283F83D20FB68C5
:10491000002283F83E20FB681B6C43F02002FB68FA
:104920001A64FB68002283F83C20012320E0BB6866
:104930001B0CDBB2012B0CD1FB681B685B69DA43F3
:10494000BB6813409BB2002B14BF01230023DBB2D2
:104950000BE0FB681B689B69DA43BB6813409BB2A2
:10496000002B14BF01230023DBB2002B8DD10023C9
:1049700018461037BD4680BD80B584B000AFF860E2
:10498000B9607A602DE0F86800F0CEF80346002B9D
:1049900001D001232DE0BB68B3F1FF3F21D0FEF72A
:1049A0007FFA02467B68D31ABA689A4202D3BB6880
:1049B000002B16D1FB6800221A63FB68202283F8C3
:1049C0003D20FB68002283F83E20FB681B6C43F00F
:1049D0002002FB681A64FB68002283F83C20012354
:1049E00007E0FB681B685B6903F08003802BCAD17A
:1049F000002318461037BD4680BD80B584B000AF97
:104A0000F860B9607A602DE0F86800F08DF8034630
:104A1000002B01D001232DE0BB68B3F1FF3F21D073
:104A2000FEF73EFA02467B68D31ABA689A4202D36E
:104A3000BB68002B16D1FB6800221A63FB6820229A
:104A400083F83D20FB68002283F83E20FB681B6C46
:104A500043F02002FB681A64FB68002283F83C20C4
:104A6000012307E0FB681B685B6903F00403042B68
:104A7000CAD1002318461037BD4680BD80B584B02A
:104A800000AFF860B9607A6042E0FB681B685B6960
:104A900003F01003102B19D1FB681B686FF0100294
:104AA0005A61FB6800221A63FB68202283F83D20CC
:104AB000FB68002283F83E20FB681A6CFB681A64CE
:104AC000FB68002283F83C20012329E0FEF7E8F987
:104AD00002467B68D31ABA689A4202D3BB68002B9D
:104AE00016D1FB6800221A63FB68202283F83D2060
:104AF000FB68002283F83E20FB681B6C43F0200219
:104B0000FB681A64FB68002283F83C20012307E05D
:104B1000FB681B685B6903F04003402BB5D10023A1
:104B200018461037BD4680BD80B483B000AF7860B2
:104B30007B681B685B6903F48063B3F5806F1BD1EE
:104B40007B681B686FF480625A617B6800221A637D
:104B50007B68202283F83D207B68002283F83E207A
:104B60007B681B6C43F004027B681A647B6800223C
:104B700083F83C20012300E0002318460C37BD4693
:104B800080BC704780B586B000AF78607B68002B32
:104B900001D101236CE27B681B6803F00103002B49
:104BA00000F08780924B5B6803F00C03042B0CD061
:104BB0008F4B5B6803F00C03082B12D18C4B5B68A6
:104BC00003F48033B3F5803F0BD1894B1B6803F4AA
:104BD0000033002B6CD07B685B68002B68D101230D
:104BE00046E27B685B68B3F5803F06D1804B1B686B
:104BF0007F4A43F4803313602EE07B685B68002BB0
:104C00000CD17B4B1B687A4A23F480331360784BBA
:104C10001B68774A23F4802313601DE07B685B6880
:104C2000B3F5A02F0CD1724B1B68714A43F480235B
:104C300013606F4B1B686E4A43F4803313600BE0C4
:104C40006B4B1B686A4A23F480331360684B1B6804
:104C5000674A23F4802313607B685B68002B13D0C2
:104C6000FEF71EF9386108E0FEF71AF902463B69C3
:104C7000D31A642B01D90323FAE15D4B1B6803F4BB
:104C80000033002BF0D014E0FEF70AF9386108E099
:104C9000FEF706F902463B69D31A642B01D90323B8
:104CA000E6E1534B1B6803F40033002BF0D100E026
:104CB00000BF7B681B6803F00203002B63D04C4BE2
:104CC0005B6803F00C03002B0BD0494B5B6803F0CF
:104CD0000C03082B1CD1464B5B6803F48033002B7C
:104CE00016D1434B1B6803F00203002B05D07B68F1
:104CF0001B69012B01D00123BAE13D4B1B6823F056
:104D0000F8027B685B69DB00394913430B603AE0CA
:104D10007B681B69002B20D0364B01221A60FEF7FE
:104D2000BFF8386108E0FEF7BBF802463B69D31ACA
:104D3000022B01D903239BE12D4B1B6803F00203D7
:104D4000002BF0D02A4B1B6823F0F8027B685B69CC
:104D5000DB00274913430B6015E0264B00221A6045
:104D6000FEF79EF8386108E0FEF79AF802463B69C4
:104D7000D31A022B01D903237AE11D4B1B6803F0E0
:104D80000203002BF0D17B681B6803F00803002BA3
:104D90003AD07B689B69002B19D0174B01221A600F
:104DA000FEF77EF8386108E0FEF77AF802463B69C4
:104DB000D31A022B01D903235AE10D4B5B6A03F08E
:104DC0000203002BF0D0012000F0D8FA1CE00A4BBF
:104DD00000221A60FEF764F838610FE0FEF760F811
:104DE00002463B69D31A022B08D9032340E100BFD6
:104DF0000010024000004242800442429E4B5B6A27
:104E000003F00203002BE9D17B681B6803F0040365
:104E1000002B00F0A6800023FB75974BDB6903F0A5
:104E20008053002B0DD1944BDB69934A43F08053A0
:104E3000D361914BDB6903F08053BB60BB680123F6
:104E4000FB758E4B1B6803F48073002B18D18B4BC2
:104E50001B688A4A43F480731360FEF721F83861B7
:104E600008E0FEF71DF802463B69D31A642B01D90E
:104E70000323FDE0814B1B6803F48073002BF0D00B
:104E80007B68DB68012B06D17B4B1B6A7A4A43F0B7
:104E9000010313622DE07B68DB68002B0CD1764B9D
:104EA0001B6A754A23F001031362734B1B6A724A33
:104EB00023F0040313621CE07B68DB68052B0CD134
:104EC0006D4B1B6A6C4A43F0040313626A4B1B6A06
:104ED000694A43F0010313620BE0674B1B6A664AA1
:104EE00023F001031362644B1B6A634A23F004033B
:104EF00013627B68DB68002B15D0FDF7D1FF3861AA
:104F00000AE0FDF7CDFF02463B69D31A41F2883231
:104F1000934201D90323ABE0574B1B6A03F0020312
:104F2000002BEED014E0FDF7BBFF38610AE0FDF77F
:104F3000B7FF02463B69D31A41F28832934201D946
:104F4000032395E04C4B1B6A03F00203002BEED1C8
:104F5000FB7D012B05D1484BDB69474A23F0805389
:104F6000D3617B68DB69002B00F08180424B5B687A
:104F700003F00C03082B61D07B68DB69022B46D160
:104F80003F4B00221A60FDF78BFF386108E0FDF708
:104F900087FF02463B69D31A022B01D9032367E03E
:104FA000354B1B6803F00073002BF0D17B681B6A44
:104FB000B3F5803F08D1304B5B6823F400327B6847
:104FC0009B682D4913434B602B4B5B6823F4741291
:104FD0007B68196A7B685B6A0B43274913434B6004
:104FE000274B01221A60FDF75BFF386108E0FDF7EF
:104FF00057FF02463B69D31A022B01D9032337E03E
:105000001D4B1B6803F00073002BF0D02FE01C4BEE
:1050100000221A60FDF744FF386108E0FDF740FF09
:1050200002463B69D31A022B01D9032320E0124B1D
:105030001B6803F00073002BF0D118E07B68DB697C
:10504000012B01D1012313E00B4B5B68FB60FB6874
:1050500003F480327B681B6A9A4206D1FB6803F432
:1050600070127B685B6A9A4201D0012300E0002342
:1050700018461837BD4680BD001002400070004041
:105080006000424280B584B000AF786039607B68D0
:10509000002B01D10123D0E06A4B1B6803F007030A
:1050A0003A689A4210D9674B1B6823F0070265499A
:1050B0003B6813430B60634B1B6803F007033A68BC
:1050C0009A4201D00123B8E07B681B6803F0020319
:1050D000002B20D07B681B6803F00403002B05D055
:1050E000594B5B68584A43F4E06353607B681B6824
:1050F00003F00803002B05D0534B5B68524A43F47E
:1051000060535360504B5B6823F0F0027B689B68F0
:105110004D4913434B607B681B6803F00103002B70
:1051200040D07B685B68012B07D1474B1B6803F4B9
:105130000033002B15D101237FE07B685B68022BD5
:1051400007D1414B1B6803F00073002B09D10123E9
:1051500073E03D4B1B6803F00203002B01D10123D8
:105160006BE0394B5B6823F003027B685B68364970
:1051700013434B60FDF794FEF8600AE0FDF790FEE4
:105180000246FB68D31A41F28832934201D90323C5
:1051900053E02D4B5B6803F00C027B685B689B005F
:1051A0009A42EBD1274B1B6803F007033A689A42F7
:1051B00010D2244B1B6823F0070222493B6813439B
:1051C0000B60204B1B6803F007033A689A4201D03A
:1051D000012332E07B681B6803F00403002B08D036
:1051E000194B5B6823F4E0627B68DB681649134364
:1051F0004B607B681B6803F00803002B09D0124B3F
:105200005B6823F460527B681B69DB000E49134323
:105210004B6000F021F802460B4B5B681B0903F062
:105220000F030A49CB5C22FA03F3094A1360094BC6
:105230001B681846FDF7F2FD002318461037BD46DF
:1052400080BD00BF002002400010024048AB0008B3
:10525000100000202400002090B48AB000AF2A4B38
:105260003C1D0FCB84E80F0040F201233B8000235C
:10527000FB610023BB6100237B6200237B61002371
:105280003B62224B5B68FB61FB6903F00C03042B60
:1052900002D0082B03D02DE01D4B3B622DE0FB69B3
:1052A0009B0C03F00F0307F12802134413F8243C6E
:1052B0007B61FB6903F48033002B13D0134B5B68D5
:1052C0005B0C03F0010307F12802134413F8283C98
:1052D000BB617B690E4A02FB03F2BB69B2FBF3F3CD
:1052E0007B6204E07B690B4A02FB03F37B627B6A0F
:1052F0003B6202E0064B3B6200BF3B6A1846283720
:10530000BD4690BC704700BF38AB0008001002409B
:1053100000127A0000093D0080B400AF024B1B6808
:105320001846BD4680BC70471000002080B500AF15
:10533000FFF7F2FF0246054B5B681B0A03F0070309
:105340000349CB5C22FA03F3184680BD00100240EB
:1053500058AB000880B500AFFFF7DEFF0246054BF3
:105360005B68DB0A03F007030349CB5C22FA03F313
:10537000184680BD0010024058AB000880B485B0CC
:1053800000AF78600A4B1B680A4AA2FB03235B0A42
:105390007A6802FB03F3FB6000BFFB685A1EFA60E9
:1053A000002BF9D100BF00BF1437BD4680BC704749
:1053B00010000020D34D621080B582B000AF78603D
:1053C0007B68002B01D1012341E07B6893F83D30DD
:1053D000DBB2002B06D17B68002283F83C20786882
:1053E000FDF714FB7B68022283F83D207B681A6876
:1053F0007B6804331946104600F070FA7B6801227E
:1054000083F846207B68012283F83E207B680122D6
:1054100083F83F207B68012283F840207B680122CB
:1054200083F841207B68012283F842207B680122B7
:1054300083F843207B68012283F844207B680122A3
:1054400083F845207B68012283F83D20002318461D
:105450000837BD4680BD000080B485B000AF7860DD
:105460007B6893F83D30DBB2012B01D001233AE099
:105470007B68022283F83D207B681B68DA687B68C2
:105480001B6842F00102DA607B681B68184A93428D
:105490000ED07B681B68B3F1804F09D07B681B6816
:1054A000144A934204D07B681B68134A934211D17B
:1054B0007B681B689B6803F00703FB60FB68062B97
:1054C00010D07B681B681A687B681B6842F0010279
:1054D0001A6007E07B681B681A687B681B6842F0EB
:1054E00001021A60002318461437BD4680BC70477D
:1054F000002C0140000400400008004080B582B04C
:1055000000AF78607B681B681B6903F00203022B05
:1055100022D17B681B68DB6803F00203022B1BD1DE
:105520007B681B686FF002021A617B6801221A77A0
:105530007B681B689B6903F00303002B03D078682A
:1055400000F0B1F905E0786800F0A4F9786800F09F
:10555000B3F97B6800221A777B681B681B6903F02C
:105560000403042B22D17B681B68DB6803F004036F
:10557000042B1BD17B681B686FF004021A617B68E7
:1055800002221A777B681B689B6903F44073002B27
:1055900003D0786800F087F905E0786800F07AF9C0
:1055A000786800F089F97B6800221A777B681B68AD
:1055B0001B6903F00803082B22D17B681B68DB689A
:1055C00003F00803082B1BD17B681B686FF00802EF
:1055D0001A617B6804221A777B681B68DB6903F019
:1055E0000303002B03D0786800F05DF905E07868CC
:1055F00000F050F9786800F05FF97B6800221A77B4
:105600007B681B681B6903F01003102B22D17B6899
:105610001B68DB6803F01003102B1BD17B681B6831
:105620006FF010021A617B6808221A777B681B688A
:10563000DB6903F44073002B03D0786800F033F982
:1056400005E0786800F026F9786800F035F97B68A5
:1056500000221A777B681B681B6903F00103012B8A
:105660000ED17B681B68DB6803F00103012B07D1B7
:105670007B681B686FF001021A617868FBF768FDB0
:105680007B681B681B6903F08003802B0ED17B684D
:105690001B68DB6803F08003802B07D17B681B68E5
:1056A0006FF080021A61786800F077FA7B681B68F7
:1056B0001B6903F04003402B0ED17B681B68DB683D
:1056C00003F04003402B07D17B681B686FF040025A
:1056D0001A61786800F0F9F87B681B681B6903F0B1
:1056E0002003202B0ED17B681B68DB6803F02003AE
:1056F000202B07D17B681B686FF020021A61786845
:1057000000F042FA00BF0837BD4680BD80B584B0C6
:1057100000AF786039607B6893F83C30012B01D191
:105720000223B3E07B68012283F83C207B680222DD
:1057300083F83D207B681B689B68FB60FB6823F057
:105740007703FB60FB6823F47F43FB607B681B6887
:10575000FA689A603B681B68B3F5005F3ED0B3F50A
:10576000005F00F28780B3F5805F00F08580B3F5BD
:10577000805F7FD8702B1AD0702B7BD8602B50D0D5
:10578000602B77D8502B3CD0502B73D8402B58D05F
:10579000402B6FD8302B64D0302B6BD8202B60D0AF
:1057A000202B67D8002B5CD0102B5AD062E07B688E
:1057B00018683B6899683B685A683B68DB6800F08A
:1057C00066F97B681B689B68FB60FB6843F07703A6
:1057D000FB607B681B68FA689A604EE07B6818681B
:1057E0003B6899683B685A683B68DB6800F04FF992
:1057F0007B681B689A687B681B6842F480429A60E9
:105800003BE07B6818683B6859683B68DB681A4670
:1058100000F0C6F87B681B685021184600F01DF99F
:105820002BE07B6818683B6859683B68DB681A4660
:1058300000F0E4F87B681B686021184600F00DF961
:105840001BE07B6818683B6859683B68DB681A4650
:1058500000F0A6F87B681B684021184600F0FDF8B0
:105860000BE07B681A683B681B681946104600F01D
:10587000F4F802E000BF00E000BF7B68012283F87B
:105880003D207B68002283F83C2000231846103717
:10589000BD4680BD80B483B000AF786000BF0C37D8
:1058A000BD4680BC704780B483B000AF786000BF55
:1058B0000C37BD4680BC704780B483B000AF7860C1
:1058C00000BF0C37BD4680BC704780B483B000AFCA
:1058D000786000BF0C37BD4680BC704780B485B08F
:1058E00000AF786039607B681B68FB607B68294A81
:1058F00093420BD07B68B3F1804F07D07B68264A78
:10590000934203D07B68254A934208D1FB6823F079
:105910007003FB603B685B68FA681343FB607B685D
:105920001C4A93420BD07B68B3F1804F07D07B6851
:10593000194A934203D07B68184A934208D1FB6806
:1059400023F44073FB603B68DB68FA681343FB6039
:10595000FB6823F080023B685B691343FB607B6854
:10596000FA681A603B689A687B68DA623B681A6872
:105970007B689A627B68074A934203D13B681A6945
:105980007B681A637B6801225A6100BF1437BD46E9
:1059900080BC7047002C014000040040000800401B
:1059A00080B487B000AFF860B9607A60FB681B6AAA
:1059B0007B61FB681B6A23F00102FB681A62FB68CB
:1059C0009B693B613B6923F0F0033B617B681B01F2
:1059D0003A6913433B617B6923F00A037B617A696F
:1059E000BB6813437B61FB683A699A61FB687A691B
:1059F0001A6200BF1C37BD4680BC704780B487B0B8
:105A000000AFF860B9607A60FB681B6A23F010028F
:105A1000FB681A62FB689B697B61FB681B6A3B61E0
:105A20007B6923F470437B617B681B037A691343B2
:105A30007B613B6923F0A0033B61BB681B013A69B2
:105A400013433B61FB687A699A61FB683A691A62A1
:105A500000BF1C37BD4680BC704780B485B000AF26
:105A6000786039607B689B68FB60FB6823F070039B
:105A7000FB603A68FB68134343F00703FB607B68F5
:105A8000FA689A6000BF1437BD4680BC704780B486
:105A900087B000AFF860B9607A603B60FB689B68D4
:105AA0007B617B6923F47F437B613B681A027B68DF
:105AB0001A43BB6813437A6913437B61FB687A69B5
:105AC0009A6000BF1C37BD4680BC704780B485B06B
:105AD00000AF786039607B6893F83C30012B01D1CE
